:100000000C9437000C945F000C945F000C945F001C
:100010000C945F000C945F000C945F000C945F00E4
:100020000C945F000C945F000C945F000C945F00D4
:100030000C945F000C945F000C945F000C945F00C4
:100040000C9438030C945F000C944D050C947F05C0
:100050000C945F000C945F000C945F000C945F00A4
:100060000C945F000C945F00AB01AF05B10111244B
:100070001FBECFEFD8E0DEBFCDBF11E0A0E0B1E002
:10008000E0EDF6E102C005900D92A835B107D9F771
:1000900022E0A8E5B1E001C01D92A830B207E1F767
:1000A00010E0CCE6D0E004C02297FE010E940009D7
:1000B000C836D107C9F70E94F3050C945B0B0C946A
:1000C000000026E040E855E260E070E087E691E05D
:1000D0000C94EB04CF93DF93EC0142960E947606DA
:1000E000CE010C960E947606CE0106960E947606F8
:1000F000CE01DF91CF910C9476060F931F93CF938F
:10010000DF93EC018B010E94FA06B8016A5F7F4F12
:10011000CE0106960E94FA06B801645F7F4FCE01B9
:100120000C960E94FA06B8016E5E7F4FCE01429691
:100130000E94FA06CE01DF91CF911F910F91089591
:100140004F925F926F927F928F929F92AF92BF92E7
:10015000CF92DF92EF92FF920F931F93CF93DF9393
:10016000CDB7DEB7E0970FB6F894DEBF0FBECDBFB8
:100170007C018B016AE3C8010E9433082C014C0109
:100180008FEF881A980AA4016AE3C8010E94170831
:100190005C016C01EFEFCE1ADE0AA6016AE3C8012A
:1001A0000E9417083C016AE471E0C7010E94E4065E
:1001B0006AE471E0C70106960E94E4066AE471E011
:1001C000C7010C960E94E4066AE471E0C7014296FA
:1001D0000E94E406FFEF4F165F0609F482C08FEF1E
:1001E000A816B80609F47DC0920140E050E0B801BD
:1001F000CE018B960E943708CE018B960E947C0818
:100200009501A401B801CE0185960E943708CE0160
:1002100085960E947C08EFEF6E167E0611F0930122
:1002200005C0F8012481358121503109A601B801AA
:10023000CE014F960E943708CE014F960E947C084F
:10024000FFEF6F167F0661F0F80124813581A3016D
:100250004F5F5F4FB801CE0149960E94370806C034
:1002600066E071E0CE0149960E94E406CE0149960F
:100270000E947C08BE01655D7F4FCE0101960E9401
:100280001107BE016B5D7F4FCE0107960E941107DB
:10029000BE01615E7F4FCE010D960E941107BE0127
:1002A000675E7F4FCE0143960E941107BE016F5FCC
:1002B0007F4FC7010E947D00CE0101960E946A0017
:1002C000CE0149960E947606CE014F960E94760690
:1002D000CE0185960E947606CE018B960E94760608
:1002E00022C066E071E0CE0101960E94E40666E05D
:1002F00071E0CE0107960E94E40666E071E0CE014F
:100300000D960E94E40666E071E0CE0143960E94DD
:10031000E406BE016F5F7F4FC7010E947D00CE01E2
:1003200001960E946A00C701E0960FB6F894DEBFFE
:100330000FBECDBFDF91CF911F910F91FF90EF9036
:10034000DF90CF90BF90AF909F908F907F906F90F5
:100350005F904F9008956BE071E088E591E00C9418
:10036000E40688E591E00C947606FF920F931F93C4
:10037000CF93DF93CDB7DEB72C970FB6F894DEBFDF
:100380000FBECDBF8C016AE471E0CE0107960E94DA
:10039000E40687E691E00E9408041816190654F452
:1003A00087E691E00E942104F82E682FCE0107967F
:1003B0000E9475078DE0F812ECCFBE01695F7F4F98
:1003C000CE0101960E941107BE016F5F7F4FC801E9
:1003D0000E94A000CE0101960E947606CE010796EB
:1003E0000E947606C8012C960FB6F894DEBF0FBEA9
:1003F000CDBFDF91CF911F910F91FF9008950F9383
:100400001F93CF93DF93CDB7DEB7EC970FB6F89479
:10041000DEBF0FBECDBF8C0162E171E0CE01C79699
:100420000E94E406B801CE01C7960E945E076AE109
:1004300071E0CE01C7960E946507BE01695C7F4FDF
:1004400087E691E00E945206CE0101960E94B50116
:10045000BE016F5F7F4FCE01C1960E941107BE01A2
:10046000695F7F4FCE018B960E941107BE01635FCB
:100470007F4FCE0185960E941107BE016D5E7F4FB2
:10048000CE014F960E94110768E571E0CE018B9670
:100490000E94E507882341F06BE171E0CE0185966B
:1004A0000E94F807811189C06FE171E087E691E051
:1004B0000E9464066DE271E0CE0149960E94E40656
:1004C000BE016F5C7F4FCE0149960E9488076DE2A6
:1004D00071E00E949B07BC0187E691E00E945206F2
:1004E000CE0149960E9476066DE271E0CE014996F2
:1004F0000E94E406BE01655D7F4FCE0149960E94D1
:1005000088076DE271E00E949B07BC0187E691E0DD
:100510000E945206CE0149960E9476066DE271E075
:10052000CE0149960E94E406BE016B5D7F4FCE016D
:1005300049960E9488076DE271E00E949B07BC010A
:1005400087E691E00E945206CE0149960E94760607
:100550006DE271E0CE0149960E94E406BE01615E43
:100560007F4FCE0149960E9488076DE271E00E949C
:100570009B07BC0187E691E00E945206CE01499696
:100580000E9476066FE171E087E691E00E946406C2
:10059000CE014F960E947606CE0185960E94760681
:1005A000CE018B960E947606CE01C1960E947606F9
:1005B000CE0101960E946A0047CFCE014F960E945D
:1005C0007606CE0185960E947606CE018B960E9415
:1005D0007606CE01C1960E947606CE0101960E9453
:1005E0006A00CE01C7960E947606EC960FB6F89484
:1005F000DEBF0FBECDBFDF91CF911F910F91089548
:10060000CF93DF9300D000D000D0CDB7DEB76FE23C
:1006100071E0CE0101960E94E406CE0101960E948F
:10062000FF01CE0101960E94760660E177E280E04C
:1006300090E00E94A50364E371E0CE0101960E9460
:10064000E406CE0101960E94FF01CE0101960E94B0
:10065000760660E177E280E090E00E94A5032696AE
:100660000FB6F894DEBF0FBECDBFDF91CF910895D6
:100670001F920F920FB60F9211242F933F938F93D7
:100680009F93AF93BF9380915F0190916001A09180
:100690006101B091620130915E0123E0230F2D379B
:1006A00020F40196A11DB11D05C026E8230F029676
:1006B000A11DB11D20935E0180935F0190936001A5
:1006C000A0936101B09362018091630190916401F4
:1006D000A0916501B09166010196A11DB11D8093A5
:1006E000630190936401A0936501B0936601BF918B
:1006F000AF919F918F913F912F910F900FBE0F90CF
:100700001F9018953FB7F894809163019091640110
:10071000A0916501B091660126B5A89B05C02F3F49
:1007200019F00196A11DB11D3FBF6627782F892FB3
:100730009A2F620F711D811D911D42E0660F771F78
:10074000881F991F4A95D1F70895CF92DF92EF92B3
:10075000FF92CF93DF936B017C010E948203EB0138
:10076000C114D104E104F10489F00E94DB080E9465
:1007700082036C1B7D0B683E734090F381E0C81AC6
:10078000D108E108F108C851DC4FEACFDF91CF91E1
:10079000FF90EF90DF90CF900895789484B58260B9
:1007A00084BD84B5816084BD85B5826085BD85B515
:1007B000816085BDEEE6F0E0808181608083E1E8C4
:1007C000F0E01082808182608083808181608083FC
:1007D000E0E8F0E0808181608083E1EBF0E08081FF
:1007E00084608083E0EBF0E0808181608083EAE7D1
:1007F000F0E080818460808380818260808380815A
:10080000816080838081806880831092C100089518
:10081000FC01818D228D90E0805C9F4F821B9109AD
:100820008F7399270895FC01918D828D981731F06F
:10083000828DE80FF11D858D90E008958FEF9FEF79
:100840000895FC01918D828D981761F0828DDF01F2
:10085000A80FB11D5D968C91928D9F5F9F73928FB3
:1008600090E008958FEF9FEF089585EA95E0892B3A
:1008700049F080E090E0892B29F00E94A5058111C4
:100880000C9400000895FC01848DDF01A80FB11DB8
:10089000A35ABF4F2C91848D90E001968F739927B6
:1008A000848FA689B7892C93A089B1898C918064A3
:1008B0008C93938D848D981306C00288F389E02D64
:1008C00080818F7D80830895CF93DF93EC01888DA5
:1008D0008823C9F0EA89FB89808185FD05C0A88944
:1008E000B9898C9186FD0FC00FB607FCF5CF8081CA
:1008F00085FFF2CFA889B9898C9185FFEDCFCE0114
:100900000E944304E7CFDF91CF910895CF92DF9209
:10091000FF920F931F93CF93DF931F92CDB7DEB754
:100920006C0181E0D60158968C9358975B969C9108
:100930005B975C968C915C97981307C05096ED91ED
:10094000FC915197808185FD2EC0F601038D10E04A
:100950000F5F1F4F0F731127F02EF601848DF812D1
:1009600011C00FB607FCF9CFD6015096ED91FC915E
:100970005197808185FFF1CFC60169830E944304AE
:100980006981EBCF838DE80FF11DE35AFF4F608340
:10099000D6015B960C935B975296ED91FC91539721
:1009A000808180620CC0D6015696ED91FC915797DC
:1009B00060835096ED91FC91519780818064808393
:1009C00081E090E00F90DF91CF911F910F91FF9008
:1009D000DF90CF900895BF92CF92DF92EF92FF9277
:1009E000CF93DF93EC016A017B01B22EE889F9898C
:1009F00082E08083411581EE580761057105A1F001
:100A000060E079E08DE390E0A70196010E94DC08A8
:100A10002150310941095109569547953795279538
:100A2000211580E1380798F0E889F989108260E89B
:100A300074E88EE190E0A70196010E94DC08215045
:100A40003109410951095695479537952795EC8508
:100A5000FD853083EE85FF852083188EEC89FD8926
:100A6000B082EA89FB89808180618083EA89FB8981
:100A7000808188608083EA89FB89808180688083A7
:100A8000EA89FB8980818F7D8083DF91CF91FF9000
:100A9000EF90DF90CF90BF9008951F920F920FB606
:100AA0000F9211242F938F939F93EF93FF93E091D5
:100AB0007701F09178018081E0917D01F0917E01D4
:100AC00082FD12C09081809180018F5F8F73209191
:100AD0008101821751F0E0918001F0E0E959FE4F69
:100AE000958F8093800101C08081FF91EF919F914C
:100AF0008F912F910F900FBE0F901F9018951F92FE
:100B00000F920FB60F9211242F933F934F935F9341
:100B10006F937F938F939F93AF93BF93EF93FF93C5
:100B200087E691E00E944304FF91EF91BF91AF915E
:100B30009F918F917F916F915F914F913F912F91F5
:100B40000F900FBE0F901F90189587E691E00E94BE
:100B5000080421E0892B09F420E0822F08951092E7
:100B60006A011092690188EE93E0A0E0B0E0809302
:100B70006B0190936C01A0936D01B0936E018CE3B7
:100B800091E0909368018093670185EC90E09093E9
:100B900074018093730184EC90E0909376018093CC
:100BA000750180EC90E0909378018093770181EC5F
:100BB00090E090937A018093790182EC90E0909399
:100BC0007C0180937B0186EC90E090937E01809382
:100BD0007D01109280011092810110928201109289
:100BE0008301089508950E94CD030E94F2050E949A
:100BF0006100C5E3D4E00E9400032097E1F30E9466
:100C00003504F9CFCF92DF92EF92FF920F931F93AB
:100C1000CF93DF936C017A01EB01E60EF71E00E043
:100C200010E0CE15DF0561F06991D601ED91FC91E0
:100C30000190F081E02DC6010995080F191FF1CF31
:100C4000C801DF91CF911F910F91FF90EF90DF903E
:100C5000CF9008956115710581F0DB010D900020A2
:100C6000E9F7AD0141505109461B570BDC01ED91ED
:100C7000FC910280F381E02D099480E090E00895DA
:100C8000DC01ED91FC91DB0114964D915C9115977F
:100C90006D917C910280F381E02D099468E471E00C
:100CA0000C942A060F931F93CF93DF93EC010E94BD
:100CB00040068C01CE010E944E06800F911FDF91ED
:100CC000CF911F910F9108950F931F93CF93DF93AF
:100CD000EC010E942A068C01CE010E944E06800F74
:100CE000911FDF91CF911F910F910895FC01808199
:100CF00091810C949C09CF93DF93EC0188819981B9
:100D0000009711F00E949C09198218821D821C8292
:100D10001B821A82DF91CF9108950F931F93CF9377
:100D2000DF93EC018B016F5F7F4F888199810E9477
:100D30002B0A009731F0998388831B830A8381E013
:100D400001C080E0DF91CF911F910F910895CF9363
:100D5000DF93EC0188819981892B29F08A819B811D
:100D60008617970760F4CE010E948D06882341F014
:100D70008C819D81892B19F4E881F981108281E0B1
:100D8000DF91CF910895EF92FF920F931F93CF932E
:100D9000DF93EC017B018A01BA010E94A706811151
:100DA00004C0CE010E947B0607C01D830C83B701DF
:100DB000888199810E941A0BCE01DF91CF911F91FA
:100DC0000F91FF90EF900895FC0111821082138221
:100DD0001282158214826115710559F0FB01019090
:100DE0000020E9F7AF0141505109461B570B0C9405
:100DF000C3060895CF93DF93EC01FB018617970795
:100E000061F0608171816115710529F0448155811E
:100E10000E94C30602C00E947B06CE01DF91CF91E3
:100E20000895FC01118210821382128215821482AD
:100E30000C94FA06CF93DF93EC016115710561F014
:100E4000FB0101900020E9F7AF0141505109461B19
:100E5000570B0E94C30602C00E947B06CE01DF91A1
:100E6000CF910895EF92FF920F931F93CF93DF934B
:100E7000EC017B010C811D816115710511F480E08D
:100E800016C04115510591F0040F151FB8010E94BD
:100E9000A7068823A1F3288139818C819D81B70120
:100EA000820F931F0E941A0B1D830C8381E0DF9138
:100EB000CF911F910F91FF90EF900895FB01448116
:100EC0005581608171810C9432076115710559F06B
:100ED000FB0101900020E9F7AF0141505109461B89
:100EE000570B0C94320780E00895CF93DF9300D026
:100EF000CDB7DEB769831A8241E050E0BE016F5F73
:100F00007F4F0E9432070F900F90DF91CF9108958D
:100F1000CF93DF93EC01FB014481558160817181A6
:100F20000E943207811103C0CE010E947B06CE01D0
:100F3000DF91CF910895CF93DF93EC016115710597
:100F400069F0FB0101900020E9F7AF014150510920
:100F5000461B570B0E943207811103C0CE010E942D
:100F60007B06CE01DF91CF910895CF93DF93DC0113
:100F7000ED91FC91EB01A881B981309711F01097A8
:100F8000C9F4109759F0EB012C813D81232B31F0EE
:100F90008C9190E091958195910914C0309781F0E2
:100FA000DC0114968D919C911597892B49F08081D5
:100FB00090E008C0BD01CF01DF91CF910C94110BDF
:100FC00080E090E0DF91CF910895FC01448155814C
:100FD000FB01248135814217530741F40E94B50774
:100FE00021E0892B09F020E0822F089580E0089508
:100FF000FC0124813581232B31F421E06115710539
:10100000A1F0FB0108C0FC0180819181611571058F
:1010100031F421E0FC018081882339F005C00E9471
:10102000110B21E0892B09F020E0822F0895CF9346
:10103000DF93FC01848195814817590778F4C081BA
:10104000D181772767FD7095CE01840F951F0E948F
:10105000060B009719F08C1B9D0B02C08FEF9FEFC2
:10106000DF91CF91089540E050E00C941708BF92B3
:10107000CF92DF92EF92FF920F931F93CF93DF9364
:101080006C017B01EA0189012417350720F48D2FBB
:10109000E901042F182F6AE471E0C6010E94E406FA
:1010A000D70114968D919C911597C817D907C8F44C
:1010B0008017910708F48C01D701ED91FC911197ED
:1010C000E00FF11FB08010826D917C916C0F7D1F3D
:1010D000C6010E941A07D701ED91FC91E00FF11FA4
:1010E000B082C601DF91CF911F910F91FF90EF90D9
:1010F000DF90CF90BF900895AF92BF92CF92DF92D2
:10110000EF92FF920F931F93CF93DF937C01DC014B
:10111000CD90DC901197C114D10409F441C014960C
:10112000CD91DC9115972097D9F156018501BFEF3C
:10113000AB1ABB0AF8018081992787FD90950E9420
:10114000F50A892B99F72197CC0DDD1D8881992708
:1011500087FD90950E94F50A892B91F4AE014F5FAF
:101160005F4F401B510BD70115965C934E9314971C
:10117000C016D10650F4B801C6010E94FD0A05C090
:10118000C017D10758F32197E1CFD701ED91FC911A
:10119000119714968D919C911597E80FF91F108265
:1011A000DF91CF911F910F91FF90EF90DF90CF9043
:1011B000BF90AF9008950895A1E21A2EAA1BBB1B01
:1011C000FD010DC0AA1FBB1FEE1FFF1FA217B30713
:1011D000E407F50720F0A21BB30BE40BF50B661F29
:1011E000771F881F991F1A9469F7609570958095ED
:1011F00090959B01AC01BD01CF010895EE0FFF1F3B
:101200000590F491E02D0994CF93DF9382309105FE
:1012100010F482E090E0E0910602F091070220E0F5
:1012200030E0A0E0B0E0309739F1408151814817BB
:101230005907B8F04817590771F4828193811097C4
:1012400029F013969C938E9312972CC090930702CB
:101250008093060227C02115310531F0421753074C
:1012600018F0A901DB0101C0EF019A01BD01DF0106
:101270000280F381E02DD7CF21153105F9F0281B2D
:10128000390B2430310580F48A819B816115710509
:1012900021F0FB019383828304C090930702809323
:1012A0000602FE01329644C0FE01E20FF31F819355
:1012B000919322503109398328833AC02091040246
:1012C00030910502232B41F420910201309103015A
:1012D0003093050220930402209100013091010116
:1012E0002115310541F42DB73EB7409104015091CD
:1012F0000501241B350BE0910402F0910502E21771
:10130000F307A0F42E1B3F0B2817390778F0AC0128
:101310004E5F5F4F2417350748F04E0F5F1F509305
:101320000502409304028193919302C0E0E0F0E053
:10133000CF01DF91CF910895CF93DF93009709F408
:1013400087C0FC01329713821282C0910602D091AD
:101350000702209781F420813181280F391F809165
:101360000402909105028217930779F5F093050224
:10137000E09304026DC0DE0120E030E0AE17BF074D
:1013800050F412964D915C9113979D0141155105B2
:1013900009F1DA01F3CFB383A28340815181840F35
:1013A000951F8A179B0771F48D919C911197840F5B
:1013B000951F02969183808312968D919C9113972D
:1013C000938382832115310529F4F0930702E0937A
:1013D00006023EC0D9011396FC93EE9312974D91ED
:1013E0005D91A40FB51FEA17FB0779F48081918105
:1013F000840F951F0296D90111969C938E9382813A
:10140000938113969C938E931297E0E0F0E08A818B
:101410009B81009719F0FE01EC01F9CFCE010296F5
:1014200028813981820F931F209104023091050297
:101430002817390769F4309729F41092070210929F
:10144000060202C013821282D0930502C0930402E6
:10145000DF91CF910895A0E0B0E0E1E3FAE00C94D1
:10146000280BEC01CB01209719F40E940409B8C0A5
:10147000FE01E60FF71F9E0122503109E217F30724
:1014800008F4ACC0D9010D911C91119706171707EC
:10149000B8F00530110508F49FC0A8014450510967
:1014A0004617570708F498C002501109061B170B7E
:1014B000019311936D937C93CF010E949C098CC082
:1014C0005B01A01AB10A4E01800E911EA091060286
:1014D000B0910702612C712C60E070E0109709F464
:1014E00049C0A815B905C9F5ED90FC9011976701A1
:1014F00042E0C40ED11CCA14DB0478F147018A18FB
:101500009B08640142E0C40ED11C1296BC90129755
:101510001396AC91B5E0CB16D10440F0B282A38310
:1015200091828082D9018D939C9309C00E5F1F4FD9
:101530000E0D1F1DF90111830083EB2DFA2F61158C
:10154000710531F0DB011396FC93EE93129744C0C2
:10155000F0930702E09306023FC06D917C911197D2
:101560006616770608F43B01BD0112960D90BC91FA
:10157000A02DB4CF60910402709105026815790521
:10158000E9F468167906D0F4409100015091010108
:101590004115510541F44DB75EB76091040170915A
:1015A0000501461B570BE417F507C0F4F09305023D
:1015B000E0930402F901918380830EC00E94040924
:1015C0007C01009759F0A801BE010E94FD0ACE01DE
:1015D0000E949C09C70104C0CE0102C080E090E0D7
:1015E000CDB7DEB7EEE00C94440B91112AC08032E7
:1015F00019F089508550D0F70895FB01DC0102C035
:1016000001900D9241505040D8F70895FC0181910E
:10161000861721F08823D9F7992708953197CF01AC
:101620000895FB01DC018D91019080190110D9F31F
:10163000990B0895FB01DC0101900D920020E1F768
:1016400008959927882708952F923F924F925F928D
:101650006F927F928F929F92AF92BF92CF92DF92C2
:10166000EF92FF920F931F93CF93DF93CDB7DEB727
:10167000CA1BDB0B0FB6F894DEBF0FBECDBF0994BB
:101680002A88398848885F846E847D848C849B8412
:10169000AA84B984C884DF80EE80FD800C811B8120
:1016A000AA81B981CE0FD11D0FB6F894DEBF0FBE4F
:1016B000CDBFED01089510E0CCE6D0E004C0FE01FE
:1016C0000E9400092296CE36D107C9F7F894FFCFC1
:1016D0000000080280006E756C6C004D415354454B
:1016E00052004D41535445523A003A415954002E4C
:1016F0002E2E2E2E2E2E2E2E2E2E2E2E002300504F
:10170000554D50004750530000000000860402066B
:1017100008042104130464040D0A006E616E00695C
:081720006E66006F76660000A2
:00000001FF
