:100000000C9463000C948B000C948B000C94A30153
:100010000C94A3010C94A3010C948B000C948B0002
:100020000C948B000C948B000C948B000C948B0024
:100030000C948B000C948B000C948B000C948B0014
:100040000C9434030C948B000C948B000C948B0058
:100050000C948B000C948B000C948B000C948B00F4
:100060000C948B000C948B0000000008000201002F
:100070000003040700000000000000000102040863
:100080001020408001020408102001020408102002
:10009000040404040404040402020202020203032E
:1000A00003030303000000002300260029000000D2
:1000B0000000250028002B0000000000240027007D
:1000C0002A00A500AC0011241FBECFEFD8E0DEBF90
:1000D000CDBF11E0A0E0B1E0EAEFFAE002C0059088
:1000E0000D92A633B107D9F721E0A6E3B1E001C034
:1000F0001D92A23AB207E1F710E0C4ECD0E004C0D0
:100100002297FE010E946C05C23CD107C9F70E94EC
:100110009D040C9470050C94000040E855E260E0EA
:1001200070E086E391E00E94A60261E08DE00C940D
:100130002D0460E071E086E391E00E94EE0468EE39
:1001400073E080E090E00C94A10320E04BE06AE0D3
:1001500086E391E00C94760286E391E00C941D0214
:10016000209197013091980128173907B9F490919F
:10017000550180915601981789F0E0915501F0E002
:10018000E95AFE4F80812091550130E02F5F3F4FAB
:100190002F7333272093550190E008958FEF9FEF41
:1001A00008951F93CF93DF93DC015C968D919C9112
:1001B0005D97009749F481E090E013969C938E93AD
:1001C000129780E090E03BC05196ED91FC915297E0
:1001D00050962C915097322F30951FB75E964C91C8
:1001E0005E9741FB772770F941FD6095F894408157
:1001F000772311F0422B01C043234083EC01219768
:10020000F1F748E0508160FF02C0522B01C0532338
:100210005083EC012197F1F76695415099F7808161
:10022000772311F0832301C0822B80831FBF5C964C
:100230008D919C915D970197F1F781E090E0DF91BE
:10024000CF911F910895209197013091980128171F
:10025000390781F49091550180915601981751F01A
:10026000E0915501F0E0E95AFE4F8081992787FD22
:10027000909508958FEF9FEF089520919701309109
:1002800098012817390771F4809156012091550182
:1002900090E0805C9F4F821B910960E470E00E94B7
:1002A0000105089580E090E0089520919701309134
:1002B00098012817390739F48FB7F894109256012E
:1002C000109255018FBF0895E0919701F091980128
:1002D000E817F90769F4A389B4899C918589809509
:1002E00089238C93109298011092970181E00895D0
:1002F00080E00895CF93DF93EC018A8D9B8D892B4D
:10030000F1F080919701909198018C179D07B9F0B9
:10031000009711F00E9464018E8D8E7F8E8F109257
:10032000560110925501D0939801C0939701EB8923
:10033000FC8980819D89892B808381E001C080E0D8
:10034000DF91CF9108951F920F920FB60F92112453
:100350002F933F934F935F936F937F938F939F93CD
:10036000AF93BF93EF93FF93E0919701F0919801C2
:10037000309709F451C0868DA685B785958581FF94
:1003800004C08C91892329F447C08C91892309F0FA
:1003900043C0A389B4899C918589809589238C93D6
:1003A000868997890197F1F7208D318DA685B785CC
:1003B000758558E040E0C9010197F1F7842F90E07E
:1003C00095958795482F6C91672309F040685150A7
:1003D00091F7868D81FD40958091560190E00196C0
:1003E0008F73992720915501281749F0A091560144
:1003F000B0E0A95ABE4F4C938093560103C0868D3E
:100400008160868F828D938D0197F1F7A389B489DE
:100410008C919589892B8C93FF91EF91BF91AF912E
:100420009F918F917F916F915F914F913F912F910C
:100430000F900FBE0F901F90189528E131E0FC013E
:10044000318320830C9464011F93CF93DF93EC01DD
:10045000162F6E8D6695617081E06827812F0E944E
:10046000660461E0812F0E942D04812F90E0FC0141
:10047000E458FF4FE491E88BFC01E057FF4FE49113
:10048000F0E0EE0FFF1FE255FF4F859194919A8B9C
:10049000898BDF91CF911F9108951F93CF93DF93A5
:1004A000EC01162F60E0812F0E942D048E8D81FDBE
:1004B00004C061E0812F0E9466041C87812F90E0B8
:1004C000FC01E458FF4FE491ED87FC01E057FF4F3A
:1004D000E491F0E0EE0FFF1FEC55FF4F85919491F2
:1004E0009F878E87DF91CF911F910895FF920F9381
:1004F0001F93CF93DF93EC01F62E522F1B821A82AB
:1005000008EE13E020E030E00C831D832E833F8350
:1005100088E191E0998388831F8A1E8A198E188E3C
:100520001B8E1A8E1D8E1C8E8E8D8E7F50FB81F938
:100530008E8F642FCE010E9424026F2DCE01DF9199
:10054000CF911F910F91FF900C944D02CF93DF93A9
:10055000EC019A01AB011B8E1A8E198E188E1F8A20
:100560001E8A60E079E08DE390E00E943705C901C2
:100570002430310520F0B9016350710902C061E0F7
:1005800070E07D8F6C8FEC85E63108F068C0B901B2
:10059000769567956431710518F06351710902C051
:1005A00061E070E07F8B6E8B069718F0C9010597AC
:1005B00002C081E090E0998F888FC901880F991F50
:1005C000820F931F96958795969587958D30910507
:1005D00010F00C9702C081E090E09B8F8A8F2091F1
:1005E0006800E83050F091E0EE3008F490E081E0EF
:1005F00001C0880F9A95EAF701C084E0822B8093AE
:1006000068002C85283038F02E3040F0263148F430
:100610008CE690E008C08DE690E005C08BE690E0A7
:1006200002C080E090E09C8B8B8B283030F481E01E
:1006300001C0880F2A95EAF70DC0822F90E02E3076
:1006400010F4089701C00E9791E001C0990F8A95A8
:10065000EAF7892F8D8B8C8D9D8D0197F1F7CE0157
:10066000DF91CF910C947A011F920F920FB60F92E7
:1006700011242F933F938F939F93AF93BF938091B8
:100680009A0190919B01A0919C01B0919D013091A4
:10069000990123E0230F2D3720F40196A11DB11DF0
:1006A00005C026E8230F0296A11DB11D20939901D4
:1006B00080939A0190939B01A0939C01B0939D011C
:1006C00080919E0190919F01A091A001B091A10104
:1006D0000196A11DB11D80939E0190939F01A0934F
:1006E000A001B093A101BF91AF919F918F913F91D4
:1006F0002F910F900FBE0F901F9018953FB7F89451
:1007000080919E0190919F01A091A001B091A101C3
:1007100026B5A89B05C02F3F19F00196A11DB11D5C
:100720003FBF6627782F892F9A2F620F711D811D79
:10073000911D42E0660F771F881F991F4A95D1F7D8
:100740000895CF92DF92EF92FF92CF93DF936B01E8
:100750007C010E947E03EB01C114D104E104F10489
:1007600089F00E9400050E947E036C1B7D0B683E91
:10077000734090F381E0C81AD108E108F108C8512C
:10078000DC4FEACFDF91CF91FF90EF90DF90CF90D9
:100790000895789484B5826084BD84B5816084BDF9
:1007A00085B5826085BD85B5816085BDEEE6F0E0EA
:1007B000808181608083E1E8F0E010828081826046
:1007C0008083808181608083E0E8F0E080818160C7
:1007D0008083E1EBF0E0808184608083E0EBF0E0F7
:1007E000808181608083EAE7F0E08081846080839B
:1007F0008081826080838081816080838081806845
:1008000080831092C1000895833081F028F48130F4
:1008100099F08230A1F008958730A9F08830B9F0BE
:100820008430D1F4809180008F7D03C0809180005E
:100830008F7780938000089584B58F7702C084B548
:100840008F7D84BD08958091B0008F7703C0809123
:10085000B0008F7D8093B0000895CF93DF9390E038
:10086000FC01E458FF4F2491FC01E057FF4F8491B5
:10087000882349F190E0880F991FFC01E854FF4F4D
:10088000A591B49182559F4FFC01C591D4919FB71A
:10089000611108C0F8948C91209582238C938881F3
:1008A00082230AC0623051F4F8948C91322F309533
:1008B00083238C938881822B888304C0F8948C9145
:1008C000822B8C939FBFDF91CF9108950F931F933D
:1008D000CF93DF931F92CDB7DEB7282F30E0F90119
:1008E000E859FF4F8491F901E458FF4F1491F90141
:1008F000E057FF4F04910023C9F0882321F069835A
:100900000E9404046981E02FF0E0EE0FFF1FE25522
:10091000FF4FA591B4919FB7F8948C91611103C0DA
:100920001095812301C0812B8C939FBF0F90DF9185
:10093000CF911F910F91089508950E94C9030E94BD
:100940009C040E948D00C0E0D0E00E949900209796
:10095000E1F30E940000F9CFCF92DF92EF92FF9275
:100960000F931F93CF93DF936C017A01EB01E60E97
:10097000F71E00E010E0CE15DF0561F06991D601A9
:10098000ED91FC910190F081E02DC6010995080FD1
:10099000191FF1CFC801DF91CF911F910F91FF90E7
:1009A000EF90DF90CF9008956115710581F0DB0124
:1009B0000D900020E9F7AD0141505109461B570B3E
:1009C000DC01ED91FC910280F381E02D099480E03F
:1009D00090E0089564E271E00C94D4040F931F93A7
:1009E000CF93DF93EC010E94D4048C01CE010E94CE
:1009F000EA04800F911FDF91CF911F910F9108950D
:100A0000089597FB072E16F4009407D077FD09D0C0
:100A10000E94560507FC05D03EF4909581959F4FA6
:100A20000895709561957F4F0895A1E21A2EAA1B33
:100A3000BB1BFD010DC0AA1FBB1FEE1FFF1FA2178E
:100A4000B307E407F50720F0A21BB30BE40BF50B8B
:100A5000661F771F881F991F1A9469F76095709514
:100A6000809590959B01AC01BD01CF010895052EA5
:100A700097FB1EF400940E944E0557FD07D00E947C
:100A8000150507FC03D04EF40C944E055095409587
:100A9000309521953F4F4F4F5F4F0895909580952A
:100AA000709561957F4F8F4F9F4F0895AA1BBB1B79
:100AB00051E107C0AA1FBB1FA617B70710F0A61B5E
:100AC000B70B881F991F5A95A9F780959095BC017F
:100AD000CD010895EE0FFF1F0590F491E02D0994CC
:100AE00010E0C4ECD0E004C0FE010E946C05229628
:0A0AF000C63CD107C9F7F894FFCF08
:100AFA006D61737465727C736C617665317C68654F
:100B0A006C6C6F0000000000D100AC043D01B00025
:100B1A00230155010D0A006E616E00696E66006F51
:060B2A007666002E0000BB
:00000001FF
