:100000000C9435000C945D000C945D000C945D0024
:100010000C945D000C945D000C945D000C945D00EC
:100020000C945D000C945D000C945D000C945D00DC
:100030000C945D000C945D000C945D000C945D00CC
:100040000C948C000C945D000C94A1020C94D302CF
:100050000C945D000C945D000C945D000C945D00AC
:100060000C945D000C945D00030311241FBECFEFC0
:10007000D8E0DEBFCDBF11E0A0E0B1E0EAEAF7E0F2
:1000800002C005900D92A037B107D9F722E0A0E792
:10009000B1E001C01D92A631B207E1F710E0CAE657
:1000A000D0E004C02297FE010E94CF03C836D107DA
:1000B000C9F70E9447030C94D3030C94000026E078
:1000C00040E855E260E070E089E791E00C943F027F
:1000D00060E071E089E791E00E94980368EE73E0C8
:1000E00080E090E00E94F9006AE171E089E791E028
:1000F0000E94980368EE73E080E090E00E94F900AF
:1001000064E371E089E791E00E94980368EE73E090
:1001100080E090E00C94F9001F920F920FB60F92BE
:1001200011242F933F938F939F93AF93BF9380910D
:10013000710190917201A0917301B091740130919D
:10014000700123E0230F2D3720F40196A11DB11D6E
:1001500005C026E8230F0296A11DB11D2093700152
:100160008093710190937201A0937301B093740115
:100170008091750190917601A0917701B0917801FD
:100180000196A11DB11D8093750190937601A093F6
:100190007701B0937801BF91AF919F918F913F917B
:1001A0002F910F900FBE0F901F9018953FB7F894A6
:1001B0008091750190917601A0917701B0917801BD
:1001C00026B5A89B05C02F3F19F00196A11DB11DB2
:1001D0003FBF6627782F892F9A2F620F711D811DCF
:1001E000911D42E0660F771F881F991F4A95D1F72E
:1001F0000895CF92DF92EF92FF92CF93DF936B013E
:100200007C010E94D600EB01C114D104E104F10489
:1002100089F00E94AA030E94D6006C1B7D0B683EE9
:10022000734090F381E0C81AD108E108F108C85181
:10023000DC4FEACFDF91CF91FF90EF90DF90CF902E
:100240000895789484B5826084BD84B5816084BD4E
:1002500085B5826085BD85B5816085BDEEE6F0E03F
:10026000808181608083E1E8F0E01082808182609B
:100270008083808181608083E0E8F0E0808181601C
:100280008083E1EBF0E0808184608083E0EBF0E04C
:10029000808181608083EAE7F0E0808184608083F0
:1002A000808182608083808181608083808180689A
:1002B00080831092C1000895FC01818D228D90E011
:1002C000805C9F4F821B91098F7399270895FC01D1
:1002D000918D828D981731F0828DE80FF11D858DFB
:1002E00090E008958FEF9FEF0895FC01918D828D2E
:1002F000981761F0828DDF01A80FB11D5D968C917A
:10030000928D9F5F9F73928F90E008958FEF9FEF84
:10031000089589EF92E0892B49F080E090E0892BE5
:1003200029F00E94F90281110C9400000895FC014B
:10033000848DDF01A80FB11DA35ABF4F2C91848D6E
:1003400090E001968F739927848FA689B7892C93A3
:10035000A089B1898C9180648C93938D848D98133E
:1003600006C00288F389E02D80818F7D8083089507
:10037000CF93DF93EC01888D8823C9F0EA89FB894C
:10038000808185FD05C0A889B9898C9186FD0FC043
:100390000FB607FCF5CF808185FFF2CFA889B98918
:1003A0008C9185FFEDCFCE010E949701E7CFDF91C1
:1003B000CF910895CF92DF92FF920F931F93CF9327
:1003C000DF931F92CDB7DEB76C0181E0D60158965E
:1003D0008C9358975B969C915B975C968C915C97FD
:1003E000981307C05096ED91FC915197808185FD3F
:1003F0002EC0F601038D10E00F5F1F4F0F73112702
:10040000F02EF601848DF81211C00FB607FCF9CF5B
:10041000D6015096ED91FC915197808185FFF1CFE7
:10042000C60169830E9497016981EBCF838DE80F34
:10043000F11DE35AFF4F6083D6015B960C935B97E7
:100440005296ED91FC915397808180620CC0D60149
:100450005696ED91FC91579760835096ED91FC91E3
:10046000519780818064808381E090E00F90DF91DC
:10047000CF911F910F91FF90DF90CF900895BF9281
:10048000CF92DF92EF92FF92CF93DF93EC016A015C
:100490007B01B22EE889F98982E08083411581EEE3
:1004A000580761057105A1F060E079E08DE390E007
:1004B000A70196010E94AB0321503109410951095E
:1004C0005695479537952795211580E1380798F07F
:1004D000E889F989108260E874E88EE190E0A7016C
:1004E00096010E94AB0321503109410951095695EB
:1004F000479537952795EC85FD853083EE85FF85FB
:100500002083188EEC89FD89B082EA89FB8980817D
:1005100080618083EA89FB89808188608083EA89A1
:10052000FB89808180688083EA89FB8980818F7D57
:100530008083DF91CF91FF90EF90DF90CF90BF90BD
:1005400008951F920F920FB60F9211242F938F933D
:100550009F93EF93FF93E0918901F0918A0180814D
:10056000E0918F01F091900182FD12C09081809105
:1005700092018F5F8F7320919301821751F0E09168
:100580009201F0E0E758FE4F958F8093920101C0F1
:100590008081FF91EF919F918F912F910F900FBECE
:1005A0000F901F9018951F920F920FB60F92112463
:1005B0002F933F934F935F936F937F938F939F936B
:1005C000AF93BF93EF93FF9389E791E00E94970168
:1005D000FF91EF91BF91AF919F918F917F916F911B
:1005E0005F914F913F912F910F900FBE0F901F90F1
:1005F000189589E791E00E945C0121E0892B09F4BC
:1006000020E0822F089510927C0110927B0188EEE9
:1006100093E0A0E0B0E080937D0190937E01A093F1
:100620007F01B093800182E591E090937A018093FD
:10063000790185EC90E0909386018093850184ECAC
:1006400090E0909388018093870180EC90E09093F4
:100650008A018093890181EC90E090938C018093D2
:100660008B0182EC90E090938E0180938D0186EC5B
:1006700090E09093900180938F01109292011092DC
:1006800093011092940110929501089508950E948B
:1006900021010E9446030E945F00C9E8D1E00E9448
:1006A00068002097E1F30E948901F9CFCF92DF9291
:1006B000EF92FF920F931F93CF93DF936C017A0118
:1006C000EB01E60EF71E00E010E0CE15DF0561F04D
:1006D0006991D601ED91FC910190F081E02DC60168
:1006E0000995080F191FF1CFC801DF91CF911F9114
:1006F0000F91FF90EF90DF90CF90089561157105F5
:1007000081F0DB010D900020E9F7AD014150510966
:10071000461B570BDC01ED91FC910280F381E02D2B
:10072000099480E090E008956EE571E00C947E03FA
:100730000F931F93CF93DF93EC010E947E038C01F4
:10074000CE010E949403800F911FDF91CF911F91E2
:100750000F9108950895A1E21A2EAA1BBB1BFD015B
:100760000DC0AA1FBB1FEE1FFF1FA217B307E40790
:10077000F50720F0A21BB30BE40BF50B661F771FE8
:10078000881F991F1A9469F76095709580959095C8
:100790009B01AC01BD01CF010895EE0FFF1F059035
:0A07A000F491E02D0994F894FFCFC6
:1007AA006D61737465723A736C617665313A686526
:1007BA006C6C6F20776F726C64006D617374657214
:1007CA003A736C617665323A68656C6C6F20776F44
:1007DA00726C64006D61737465723A736C617665EC
:1007EA00333A68656C6C6F20776F726C6400000036
:1007FA000000DA0156035C0175016701B8010D0AB0
:10080A00006E616E00696E66006F7666002E0000EB
:00000001FF
