:100000000C9463000C948B000C948B000C94A9014D
:100010000C94A9010C94A9010C948B000C948B00F6
:100020000C948B000C948B000C948B000C948B0024
:100030000C948B000C948B000C948B000C948B0014
:100040000C940A040C948B000C948B000C948B0081
:100050000C948B000C948B000C948B000C948B00F4
:100060000C948B000C948B0000000008000201002F
:100070000003040700000000000000000102040863
:100080001020408001020408102001020408102002
:10009000040404040404040402020202020203032E
:1000A00003030303000000002300260029000000D2
:1000B0000000250028002B0000000000240027007D
:1000C0002A009900A00011241FBECFEFD8E0DEBFA8
:1000D000CDBF11E0A0E0B1E0E6E1FAE002C005909A
:1000E0000D92A031B107D9F721E0A0E1B1E001C044
:1000F0001D92AC37B207E1F710E0C4ECD0E004C0C9
:100100002297FE010E94FA04C23CD107C9F70E945F
:10011000D3030C94FE040C94000040E855E260E028
:1001200070E080E191E00E94AC0261E08DE00C940F
:10013000630320E04BE06AE080E191E00C947C02F4
:1001400080E191E00C94230280E191E00E94430160
:100150001816190654F480E191E00E94B600682F49
:1001600080E191E00E94D700EFCF089520917101C6
:100170003091720128173907B9F490912F018091BD
:100180003001981789F0E0912F01F0E0EF5CFE4F0D
:10019000808120912F0130E02F5F3F4F2F73332755
:1001A00020932F0190E008958FEF9FEF08951F9304
:1001B000CF93DF93DC015C968D919C915D970097C6
:1001C00049F481E090E013969C938E93129780E01F
:1001D00090E03BC05196ED91FC91529750962C9136
:1001E0005097322F30951FB75E964C915E9741FB2A
:1001F000772770F941FD6095F8944081772311F0DD
:10020000422B01C043234083EC012197F1F748E0E2
:10021000508160FF02C0522B01C053235083EC0178
:100220002197F1F76695415099F78081772311F076
:10023000832301C0822B80831FBF5C968D919C918C
:100240005D970197F1F781E090E0DF91CF911F91E9
:10025000089520917101309172012817390781F4B6
:1002600090912F0180913001981751F0E0912F016A
:10027000F0E0EF5CFE4F8081992787FD909508950F
:100280008FEF9FEF0895209171013091720128172F
:10029000390771F48091300120912F0190E0805C4A
:1002A0009F4F821B910960E470E00E948F040895C3
:1002B00080E090E00895209171013091720128173B
:1002C000390739F48FB7F8941092300110922F014A
:1002D0008FBF0895E0917101F0917201E817F9075D
:1002E00069F4A389B4899C918589809589238C932D
:1002F000109272011092710181E0089580E00895DA
:10030000CF93DF93EC018A8D9B8D892BF1F0809147
:100310007101909172018C179D07B9F0009711F04F
:100320000E946A018E8D8E7F8E8F10923001109206
:100330002F01D0937201C0937101EB89FC898081F8
:100340009D89892B808381E001C080E0DF91CF917E
:1003500008951F920F920FB60F9211242F933F937F
:100360004F935F936F937F938F939F93AF93BF93BD
:10037000EF93FF93E0917101F0917201309709F4CE
:1003800051C0868DA685B785958581FF04C08C9167
:10039000892329F447C08C91892309F043C0A3899C
:1003A000B4899C918589809589238C9386899789C6
:1003B0000197F1F7208D318DA685B785758558E0B9
:1003C00040E0C9010197F1F7842F90E0959587955A
:1003D000482F6C91672309F04068515091F7868D42
:1003E00081FD40958091300190E001968F739927AF
:1003F00020912F01281749F0A0913001B0E0AF5CA7
:10040000BE4F4C938093300103C0868D8160868FF0
:10041000828D938D0197F1F7A389B4898C91958989
:10042000892B8C93FF91EF91BF91AF919F918F9109
:100430007F916F915F914F913F912F910F900FBEE0
:100440000F901F90189524E031E0FC013183208348
:100450000C946A011F93CF93DF93EC01162F6E8DDE
:100460006695617081E06827812F0E949C0361E09E
:10047000812F0E946303812F90E0FC01E458FF4F1D
:10048000E491E88BFC01E057FF4FE491F0E0EE0FC0
:10049000FF1FE255FF4F859194919A8B898BDF91D5
:1004A000CF911F9108951F93CF93DF93EC01162FE7
:1004B00060E0812F0E9463038E8D81FD04C061E0A6
:1004C000812F0E949C031C87812F90E0FC01E4583F
:1004D000FF4FE491ED87FC01E057FF4FE491F0E01E
:1004E000EE0FFF1FEC55FF4F859194919F878E87EC
:1004F000DF91CF911F910895FF920F931F93CF9398
:10050000DF93EC01F62E522F1B821A8208EE13E0C5
:1005100020E030E00C831D832E833F8384E091E054
:10052000998388831F8A1E8A198E188E1B8E1A8EB5
:100530001D8E1C8E8E8D8E7F50FB81F98E8F642FC9
:10054000CE010E942A026F2DCE01DF91CF911F9123
:100550000F91FF900C945302CF93DF93EC019A011B
:10056000AB011B8E1A8E198E188E1F8A1E8A60E0B0
:1005700079E08DE390E00E94C504C9012430310583
:1005800020F0B9016350710902C061E070E07D8F15
:100590006C8FEC85E63108F068C0B90176956795F7
:1005A0006431710518F06351710902C061E070E0B7
:1005B0007F8B6E8B069718F0C901059702C081E00A
:1005C00090E0998F888FC901880F991F820F931F20
:1005D00096958795969587958D30910510F00C9797
:1005E00002C081E090E09B8F8A8F20916800E83004
:1005F00050F091E0EE3008F490E081E001C0880F07
:100600009A95EAF701C084E0822B809368002C85DC
:10061000283038F02E3040F0263148F48CE690E057
:1006200008C08DE690E005C08BE690E002C080E057
:1006300090E09C8B8B8B283030F481E001C0880FD8
:100640002A95EAF70DC0822F90E02E3010F408971B
:1006500001C00E9791E001C0990F8A95EAF7892FA2
:100660008D8B8C8D9D8D0197F1F7CE01DF91CF9110
:100670000C948001833081F028F4813099F082302D
:10068000A1F008958730A9F08830B9F08430D1F412
:10069000809180008F7D03C0809180008F77809350
:1006A0008000089584B58F7702C084B58F7D84BDA6
:1006B00008958091B0008F7703C08091B0008F7D46
:1006C0008093B0000895CF93DF9390E0FC01E4584D
:1006D000FF4F2491FC01E057FF4F8491882349F19B
:1006E00090E0880F991FFC01E854FF4FA591B49149
:1006F00082559F4FFC01C591D4919FB7611108C0ED
:10070000F8948C91209582238C93888182230AC04F
:10071000623051F4F8948C91322F309583238C936E
:100720008881822B888304C0F8948C91822B8C93CF
:100730009FBFDF91CF9108950F931F93CF93DF93C6
:100740001F92CDB7DEB7282F30E0F901E859FF4FEF
:100750008491F901E458FF4F1491F901E057FF4FDC
:1007600004910023C9F0882321F069830E943A0391
:100770006981E02FF0E0EE0FFF1FE255FF4FA591DA
:10078000B4919FB7F8948C91611103C010958123A7
:1007900001C0812B8C939FBF0F90DF91CF911F9150
:1007A0000F91089508950E9454040E94D2030E945C
:1007B0008D00C0E0D0E00E94A4002097E1F30E94E9
:1007C0000000F9CFCF92DF92EF92FF920F931F9329
:1007D000CF93DF936C017A01EB01E60EF71E00E088
:1007E00010E0CE15DF0561F06991D601ED91FC9125
:1007F0000190F081E02DC6010995080F191FF1CF76
:10080000C801DF91CF911F910F91FF90EF90DF9082
:10081000CF9008951F920F920FB60F9211242F932D
:100820003F938F939F93AF93BF9380917401909167
:100830007501A0917601B09177013091730123E0A9
:10084000230F2D3720F40196A11DB11D05C026E808
:10085000230F0296A11DB11D209373018093740193
:1008600090937501A0937601B09377018091780100
:1008700090917901A0917A01B0917B010196A11D1F
:10088000B11D8093780190937901A0937A01B09380
:100890007B01BF91AF919F918F913F912F910F90CD
:1008A0000FBE0F901F901895789484B5826084BD18
:1008B00084B5816084BD85B5826085BD85B5816064
:1008C00085BDEEE6F0E0808181608083E1E8F0E0C4
:1008D0001082808182608083808181608083E0E8F3
:1008E000F0E0808181608083E1EBF0E080818460D2
:1008F0008083E0EBF0E0808181608083EAE7F0E0D4
:100900008081846080838081826080838081816037
:1009100080838081806880831092C100089597FB56
:10092000072E16F4009407D077FD09D00E94E40446
:1009300007FC05D03EF4909581959F4F08957095E2
:1009400061957F4F0895A1E21A2EAA1BBB1BFD01E2
:100950000DC0AA1FBB1FEE1FFF1FA217B307E4079E
:10096000F50720F0A21BB30BE40BF50B661F771FF6
:10097000881F991F1A9469F76095709580959095D6
:100980009B01AC01BD01CF010895052E97FB1EF41C
:1009900000940E94DC0457FD07D00E94A30407FCCA
:1009A00003D04EF40C94DC0450954095309521957D
:1009B0003F4F4F4F5F4F089590958095709561958B
:1009C0007F4F8F4F9F4F0895AA1BBB1B51E107C05C
:1009D000AA1FBB1FA617B70710F0A61BB70B881FCF
:1009E000991F5A95A9F780959095BC01CD0108955E
:1009F000EE0FFF1F0590F491E02D099410E0C4EC78
:100A0000D0E004C0FE010E94FA042296C63CD10741
:060A1000C9F7F894FFCFC6
:100A160000000000D700E2034301B60029015B0194
:00000001FF
