:100000000C9437000C945F000C945F000C945F001C
:100010000C945F000C945F000C945F000C945F00E4
:100020000C945F000C945F000C945F000C945F00D4
:100030000C945F000C945F000C945F000C945F00C4
:100040000C9475050C945F000C94A9020C94DB02CF
:100050000C945F000C945F000C945F000C945F00A4
:100060000C945F000C945F00E6000B03EC0011247D
:100070001FBECFEFD8E0DEBFCDBF11E0A0E0B1E002
:10008000E6EFF0E102C005900D92AA33B107D9F76F
:1000900021E0AAE3B1E001C01D92AA3EB207E1F758
:1000A00010E0CCE6D0E004C02297FE010E941E06BC
:1000B000C836D107C9F70E944F030C946E080C9400
:1000C000000026E040E855E260E070E080E491E066
:1000D0000C944702CF92DF92EF92FF920F931F93FF
:1000E000CF93DF9300D000D000D0CDB7DEB78C0126
:1000F0006AE30E942C056C017C012FEFE21AF20AE0
:10010000A7016AE3C8010E941005CD20C094E1F068
:100110008F3F2FEF9207C1F09C01A701B801CE01DC
:1001200001960E9430056AE371E0CE0101960E94BB
:10013000FD04182FCE0101960E94D20391E0111107
:1001400001C090E0892F01C080E026960FB6F89498
:10015000DEBF0FBECDBFDF91CF911F910F91FF90FA
:10016000EF90DF90CF900895EF92FF920F931F933F
:10017000CF93DF938C01EB016AE3CE010E942C0543
:100180007C01AC014F5F5F4F6AE3CE010E94100516
:10019000EF20E09471F08F3F2FEF920751F02C8108
:1001A0003D81AC014F5F5F4FBE01C8010E94300529
:1001B00005C066E071E0C8010E944004C801DF91FB
:1001C000CF911F910F91FF90EF9008956BE071E038
:1001D0008AE391E00C9440048AE391E00C94D2030A
:1001E0001F93CF93DF93EC016BE271E00E94400418
:1001F00080E491E00E946401181619064CF480E432
:1002000091E00E947D01182F682FCE010E94BA0450
:100210001D3071F7CE01DF91CF911F9108951F938B
:10022000CF93DF93CDB7DEB762970FB6F894DEBFFA
:100230000FBECDBFCE010D960E94F000BE01635FE0
:100240007F4FCE0101960E946D04CE0101960E945F
:100250006A00182FCE0101960E94D203112319F0D3
:1002600062E171E002C066E171E080E491E00E9429
:10027000C003BE01635F7F4FCE0107960E946D04ED
:10028000BE01695F7F4FCE0101960E94B400BE019E
:100290006F5F7F4F80E491E00E94AE03CE01019634
:1002A0000E94D203CE0107960E94D203CE010D9682
:1002B0000E94D20362960FB6F894DEBF0FBECDBF88
:1002C000DF91CF911F910895FC01818D228D90E0E7
:1002D000805C9F4F821B91098F7399270895FC01C1
:1002E000918D828D981731F0828DE80FF11D858DEB
:1002F00090E008958FEF9FEF0895FC01918D828D1E
:10030000981761F0828DDF01A80FB11D5D968C9169
:10031000928D9F5F9F73928F90E008958FEF9FEF74
:10032000089581E093E0892B49F080E090E0892BEB
:1003300029F00E94010381110C9400000895FC0132
:10034000848DDF01A80FB11DA35ABF4F2C91848D5E
:1003500090E001968F739927848FA689B7892C9393
:10036000A089B1898C9180648C93938D848D98132E
:1003700006C00288F389E02D80818F7D80830895F7
:10038000CF93DF93EC01888D8823C9F0EA89FB893C
:10039000808185FD05C0A889B9898C9186FD0FC033
:1003A0000FB607FCF5CF808185FFF2CFA889B98908
:1003B0008C9185FFEDCFCE010E949F01E7CFDF91A9
:1003C000CF910895CF92DF92FF920F931F93CF9317
:1003D000DF931F92CDB7DEB76C0181E0D60158964E
:1003E0008C9358975B969C915B975C968C915C97ED
:1003F000981307C05096ED91FC915197808185FD2F
:100400002EC0F601038D10E00F5F1F4F0F731127F1
:10041000F02EF601848DF81211C00FB607FCF9CF4B
:10042000D6015096ED91FC915197808185FFF1CFD7
:10043000C60169830E949F016981EBCF838DE80F1C
:10044000F11DE35AFF4F6083D6015B960C935B97D7
:100450005296ED91FC915397808180620CC0D60139
:100460005696ED91FC91579760835096ED91FC91D3
:10047000519780818064808381E090E00F90DF91CC
:10048000CF911F910F91FF90DF90CF900895BF9271
:10049000CF92DF92EF92FF92CF93DF93EC016A014C
:1004A0007B01B22EE889F98982E08083411581EED3
:1004B000580761057105A1F060E079E08DE390E0F7
:1004C000A70196010E94FA052150310941095109FD
:1004D0005695479537952795211580E1380798F06F
:1004E000E889F989108260E874E88EE190E0A7015C
:1004F00096010E94FA05215031094109510956958A
:10050000479537952795EC85FD853083EE85FF85EA
:100510002083188EEC89FD89B082EA89FB8980816D
:1005200080618083EA89FB89808188608083EA8991
:10053000FB89808180688083EA89FB8980818F7D47
:100540008083DF91CF91FF90EF90DF90CF90BF90AD
:1005500008951F920F920FB60F9211242F938F932D
:100560009F93EF93FF93E0915001F09151018081AF
:10057000E0915601F091570182FD12C09081809167
:1005800059018F5F8F7320915A01821751F0E091CA
:100590005901F0E0E05CFE4F958F8093590101C056
:1005A0008081FF91EF919F918F912F910F900FBEBE
:1005B0000F901F9018951F920F920FB60F92112453
:1005C0002F933F934F935F936F937F938F939F935B
:1005D000AF93BF93EF93FF9380E491E00E949F015C
:1005E000FF91EF91BF91AF919F918F917F916F910B
:1005F0005F914F913F912F910F900FBE0F901F90E1
:10060000189580E491E00E94640121E0892B09F4AF
:1006100020E0822F0895109243011092420188EE4B
:1006200093E0A0E0B0E08093440190934501A09353
:100630004601B09347018DE191E090934101809391
:10064000400185EC90E090934D0180934C0184EC47
:1006500090E090934F0180934E0180EC90E0909356
:1006600051018093500181EC90E09093530180936D
:10067000520182EC90E0909355018093540186ECF6
:1006800090E0909357018093560110925901109277
:100690005A0110925B0110925C01089508950E9426
:1006A000BF050E944E030E946100C1E9D1E00E9493
:1006B0000F012097E1F30E949101F9CFCF92DF92D1
:1006C000EF92FF920F931F93CF93DF936C017A0108
:1006D000EB01E60EF71E00E010E0CE15DF0561F03D
:1006E0006991D601ED91FC910190F081E02DC60158
:1006F0000995080F191FF1CFC801DF91CF911F9104
:100700000F91FF90EF90DF90CF90089561157105E4
:1007100081F0DB010D900020E9F7AD014150510956
:10072000461B570BDC01ED91FC910280F381E02D1B
:10073000099480E090E00895DC01ED91FC91DB01EB
:1007400014964D915C9115976D917C910280F38187
:10075000E02D099469E271E00C9486030F931F93D6
:10076000CF93DF93EC010E949C038C01CE010E9489
:10077000AA03800F911FDF91CF911F910F910895D0
:100780000F931F93CF93DF93EC010E9486038C019C
:10079000CE010E94AA03800F911FDF91CF911F917C
:1007A0000F910895FC01808191810C94BA06CF933A
:1007B000DF93EC0188819981009711F00E94BA06BD
:1007C000198218821D821C821B821A82DF91CF91AE
:1007D00008950F931F93CF93DF93EC018B016F5F0D
:1007E0007F4F888199810E944907009731F0998352
:1007F00088831B830A8381E001C080E0DF91CF9171
:100800001F910F910895CF93DF93EC018881998117
:10081000892B29F08A819B818617970760F4CE0186
:100820000E94E903882341F08C819D81892B19F472
:10083000E881F981108281E0DF91CF910895EF92F4
:10084000FF920F931F93CF93DF93EC017B018A01FB
:10085000BA010E940304811104C0CE010E94D70393
:1008600007C01D830C83B701888199810E943008DD
:10087000CE01DF91CF911F910F91FF90EF900895DE
:10088000FC0111821082138212821582148261157A
:10089000710559F0FB0101900020E9F7AF014150CB
:1008A0005109461B570B0C941F040895CF93DF93F7
:1008B000EC01FB018617970761F06081718161157A
:1008C000710529F0448155810E941F0402C00E94D5
:1008D000D703CE01DF91CF910895FC0111821082E0
:1008E00013821282158214820C945604CF93DF93E4
:1008F000EC016115710561F0FB0101900020E9F741
:10090000AF0141505109461B570B0E941F0402C002
:100910000E94D703CE01DF91CF910895EF92FF920D
:100920000F931F93CF93DF93EC017B010C811D810B
:100930006115710511F480E016C04115510591F063
:10094000040F151FB8010E9403048823A1F3288116
:1009500039818C819D81B701820F931F0E943008DD
:100960001D830C8381E0DF91CF911F910F91FF9048
:10097000EF900895CF93DF9300D0CDB7DEB76983B2
:100980001A8241E050E0BE016F5F7F4F0E948E04EB
:100990000F900F90DF91CF910895CF93DF93DC01FB
:1009A000ED91FC91EB01A881B981309711F010977E
:1009B000C9F4109759F0EB012C813D81232B31F0C4
:1009C0008C9190E091958195910914C0309781F0B8
:1009D000DC0114968D919C911597892B49F08081AB
:1009E00090E008C0BD01CF01DF91CF910C942708A2
:1009F00080E090E0DF91CF910895FC014481558122
:100A0000FB01248135814217530741F40E94CD0434
:100A100021E0892B09F020E0822F089580E00895DD
:100A2000CF93DF93FC01848195814817590778F4AF
:100A3000C081D181772767FD7095CE01840F951F06
:100A40000E941C08009719F08C1B9D0B02C08FEFB1
:100A50009FEFDF91CF91089540E050E00C94100596
:100A6000BF92CF92DF92EF92FF920F931F93CF939B
:100A7000DF936C017B01EA0189012417350720F41B
:100A80008D2FE901042F182F6BE271E0C6010E943F
:100A90004004D70114968D919C911597C817D907DA
:100AA000C8F48017910708F48C01D701ED91FC91EF
:100AB0001197E00FF11FB08010826D917C916C0F47
:100AC0007D1FC6010E947604D701ED91FC91E00FD5
:100AD000F11FB082C601DF91CF911F910F91FF905E
:100AE000EF90DF90CF90BF9008951F920F920FB6B6
:100AF0000F9211242F933F938F939F93AF93BF93A4
:100B00008091DE019091DF01A091E001B091E101BF
:100B10003091DD0123E0230F2D3720F40196A11D34
:100B2000B11D05C026E8230F0296A11DB11D20931B
:100B3000DD018093DE019093DF01A093E001B0938B
:100B4000E1018091E2019091E301A091E401B09173
:100B5000E5010196A11DB11D8093E2019093E3018F
:100B6000A093E401B093E501BF91AF919F918F9164
:100B70003F912F910F900FBE0F901F901895789472
:100B800084B5826084BD84B5816084BD85B5826092
:100B900085BD85B5816085BDEEE6F0E08081816030
:100BA0008083E1E8F0E01082808182608083808130
:100BB00081608083E0E8F0E0808181608083E1EB08
:100BC000F0E0808184608083E0EBF0E080818160F0
:100BD0008083EAE7F0E080818460808380818260A6
:100BE000808380818160808380818068808310928F
:100BF000C1000895A1E21A2EAA1BBB1BFD010DC066
:100C0000AA1FBB1FEE1FFF1FA217B307E407F507BC
:100C100020F0A21BB30BE40BF50B661F771F881F98
:100C2000991F1A9469F760957095809590959B012E
:100C3000AC01BD01CF010895EE0FFF1F0590F491A7
:100C4000E02D0994CF93DF938230910510F482E078
:100C500090E0E091E801F091E90120E030E0A0E0CF
:100C6000B0E0309739F14081518148175907B8F009
:100C70004817590771F482819381109729F01396D0
:100C80009C938E9312972CC09093E9018093E80176
:100C900027C02115310531F04217530718F0A9017B
:100CA000DB0101C0EF019A01BD01DF010280F38188
:100CB000E02DD7CF21153105F9F0281B390B243051
:100CC000310580F48A819B816115710521F0FB015A
:100CD0009383828304C09093E9018093E801FE012D
:100CE000329644C0FE01E20FF31F8193919322508C
:100CF0003109398328833AC02091E6013091E70118
:100D0000232B41F420910201309103013093E7013C
:100D10002093E60120910001309101012115310558
:100D200041F42DB73EB74091040150910501241BB9
:100D3000350BE091E601F091E701E217F307A0F42B
:100D40002E1B3F0B2817390778F0AC014E5F5F4F21
:100D50002417350748F04E0F5F1F5093E70140936B
:100D6000E6018193919302C0E0E0F0E0CF01DF91D2
:100D7000CF910895CF93DF93009709F487C0FC01CA
:100D8000329713821282C091E801D091E901209735
:100D900081F420813181280F391F8091E6019091E3
:100DA000E7018217930779F5F093E701E093E601F5
:100DB0006DC0DE0120E030E0AE17BF0750F41296A0
:100DC0004D915C9113979D014115510509F1DA018F
:100DD000F3CFB383A28340815181840F951F8A177B
:100DE0009B0771F48D919C911197840F951F02962A
:100DF0009183808312968D919C9113979383828324
:100E00002115310529F4F093E901E093E8013EC092
:100E1000D9011396FC93EE9312974D915D91A40F17
:100E2000B51FEA17FB0779F480819181840F951F24
:100E30000296D90111969C938E9382819381139689
:100E40009C938E931297E0E0F0E08A819B8100975B
:100E500019F0FE01EC01F9CFCE010296288139810B
:100E6000820F931F2091E6013091E701281739077F
:100E700069F4309729F41092E9011092E80102C058
:100E800013821282D093E701C093E601DF91CF91E4
:100E90000895A0E0B0E0EFE4F7E00C943B08EC012B
:100EA000CB01209719F40E942206B8C0FE01E60F7C
:100EB000F71F9E0122503109E217F30708F4ACC076
:100EC000D9010D911C91119706171707B8F005303D
:100ED000110508F49FC0A80144505109461757074F
:100EE00008F498C002501109061B170B01931193C7
:100EF0006D937C93CF010E94BA068CC05B01A01A4F
:100F0000B10A4E01800E911EA091E801B091E90155
:100F1000612C712C60E070E0109709F449C0A815AD
:100F2000B905C9F5ED90FC901197670142E0C40E38
:100F3000D11CCA14DB0478F147018A189B086401AC
:100F400042E0C40ED11C1296BC9012971396AC913D
:100F5000B5E0CB16D10440F0B282A38391828082A7
:100F6000D9018D939C9309C00E5F1F4F0E0D1F1D5D
:100F7000F90111830083EB2DFA2F6115710531F012
:100F8000DB011396FC93EE93129744C0F093E901B2
:100F9000E093E8013FC06D917C911197661677064A
:100FA00008F43B01BD0112960D90BC91A02DB4CF69
:100FB0006091E6017091E70168157905E9F468161A
:100FC0007906D0F44091000150910101411551057D
:100FD00041F44DB75EB76091040170910501461B65
:100FE000570BE417F507C0F4F093E701E093E6012F
:100FF000F901918380830EC00E9422067C01009734
:1010000059F0A801BE010E941308CE010E94BA0641
:10101000C70104C0CE0102C080E090E0CDB7DEB7CA
:10102000EEE00C945708FB01DC0102C001900D9228
:1010300041505040D8F70895FC018191861721F066
:101040008823D9F7992708953197CF010895FB0197
:10105000DC018D91019080190110D9F3990B08954D
:10106000FB01DC0101900D920020E1F708952F9221
:101070003F924F925F926F927F928F929F92AF9228
:10108000BF92CF92DF92EF92FF920F931F93CF9375
:10109000DF93CDB7DEB7CA1BDB0B0FB6F894DEBF0C
:1010A0000FBECDBF09942A88398848885F846E8432
:1010B0007D848C849B84AA84B984C884DF80EE807C
:1010C000FD800C811B81AA81B981CE0FD11D0FB685
:1010D000F894DEBF0FBECDBFED01089510E0CCE661
:1010E000D0E004C0FE010E941E062296CE36D10733
:0610F000C9F7F894FFCFE0
:1010F6000000EA0180006E756C6C00736C617665A9
:101106003100796573006E6F0000000000E2015E39
:101116000364017D016F01C0010D0A006E616E005E
:0A112600696E66006F7666002E0009
:00000001FF
