:100000000C9437000C945F000C945F000C945F001C
:100010000C945F000C945F000C945F000C945F00E4
:100020000C945F000C945F000C945F000C945F00D4
:100030000C945F000C945F000C945F000C945F00C4
:100040000C94A7070C945F000C9458040C948A0439
:100050000C945F000C945F000C945F000C945F00A4
:100060000C945F000C945F007A02BA0480021124A1
:100070001FBECFEFD8E0DEBFCDBF11E0A0E0B1E002
:10008000E0E7F5E102C005900D92AC37B107D9F772
:1000900022E0ACE7B1E001C01D92AC32B207E1F75B
:1000A00010E0CCE6D0E004C02297FE010E94500888
:1000B000C836D107C9F70E94FE040C94AB0A0C9411
:1000C000000026E040E855E260E070E082E891E060
:1000D0000C94F603CF93DF93EC0142960E946F05D8
:1000E000CE010C960E946F05CE0106960E946F0508
:1000F000CE01DF91CF910C946F056CE771E00E9407
:10010000B10691E0811101C090E0892F08950F930D
:100110001F93CF93DF93EC018B010E94F305B8018D
:100120006A5F7F4FCE0106960E94F305B801645FB7
:100130007F4FCE010C960E94F305B8016E5E7F4F93
:10014000CE0142960E94F305CE01DF91CF911F911F
:100150000F9108954F925F926F927F928F929F922C
:10016000AF92BF92CF92DF92EF92FF920F931F93C5
:10017000CF93DF93CDB7DEB7E0970FB6F894DEBF2D
:100180000FBECDBF7C018B016AE3C8010E94FF0650
:100190002C014C018FEF881A980AA4016AE3C80168
:1001A0000E94E3065C016C01EFEFCE1ADE0AA601A5
:1001B0006AE3C8010E94E3063C016CE671E0C701F6
:1001C0000E94DD056CE671E0C70106960E94DD0520
:1001D0006CE671E0C7010C960E94DD056CE671E0EB
:1001E000C70142960E94DD05FFEF4F165F0609F436
:1001F00082C08FEFA816B80609F47DC0920140E0D6
:1002000050E0B801CE018B960E940307CE018B9679
:100210000E9448079501A401B801CE0185960E946D
:100220000307CE0185960E944807EFEF6E167E0603
:1002300011F0930105C0F801248135812150310965
:10024000A601B801CE014F960E940307CE014F963A
:100250000E944807FFEF6F167F0661F0F8012481C6
:100260003581A3014F5F5F4FB801CE0149960E94CF
:10027000030706C066E071E0CE0149960E94DD05E5
:10028000CE0149960E944807BE01655D7F4FCE01B1
:1002900001960E940A06BE016B5D7F4FCE01079654
:1002A0000E940A06BE01615E7F4FCE010D960E943C
:1002B0000A06BE01675E7F4FCE0143960E940A0682
:1002C000BE016F5F7F4FC7010E948700CE0101967C
:1002D0000E946A00CE0149960E946F05CE014F969A
:1002E0000E946F05CE0185960E946F05CE018B9608
:1002F0000E946F0522C066E071E0CE0101960E9467
:10030000DD0566E071E0CE0107960E94DD0566E03E
:1003100071E0CE010D960E94DD0566E071E0CE0130
:1003200043960E94DD05BE016F5F7F4FC7010E94AB
:100330008700CE0101960E946A00C701E0960FB6C1
:10034000F894DEBF0FBECDBFDF91CF911F910F910B
:10035000FF90EF90DF90CF90BF90AF909F908F90E5
:100360007F906F905F904F9008950F931F93CF935E
:10037000DF93EC018B016CE671E00E94DD05B801B2
:100380006A5F7F4FCE010E9457066BE071E0CE019D
:100390000E945E06B801CE010E9457066BE071E034
:1003A000CE010E945E06B801645F7F4FCE010E94BD
:1003B00057066BE071E0CE010E945E06B8016E5EEA
:1003C0007F4FCE010E945706CE01DF91CF911F9142
:1003D0000F9108950F931F93CF93DF93CDB7DEB79F
:1003E00062970FB6F894DEBF0FBECDBF8C01BC0183
:1003F000645F7F4FCE010D960E940A06B8016A5FC6
:100400007F4FCE0107960E940A066AE271E0CE0194
:100410000D960E94C406882319F06DE071E03AC081
:100420006EE271E0CE010D960E94C406882341F071
:1004300065E371E0CE0107960E94C406811128C0D1
:100440006BE471E0CE010D960E94C406882341F052
:100450006AE371E0CE0107960E94C406811147C08D
:1004600060E471E0CE010D960E94C406811134C093
:1004700061E571E0CE010D960E94C4068823C9F0A3
:1004800068E471E0CE0107960E94C406882389F0D3
:1004900066E271E0CE0101960E94DD05BE016F5F4C
:1004A0007F4FC80142960E94F305CE0101960E943B
:1004B0006F05CE0107960E946F05CE010D960E9432
:1004C0006F0562960FB6F894DEBF0FBECDBFDF9109
:1004D000CF911F910F91089564E471E0CE010796CA
:1004E0000E94C406882321F260E171E0D3CF68E264
:1004F00071E0D0CF65E371E08CE791E00C94DD050D
:100500008CE791E00C946F05FF920F931F93CF93AC
:10051000DF93CDB7DEB72C970FB6F894DEBF0FBED2
:10052000CDBF8C016CE671E0CE0107960E94DD051F
:1005300082E891E00E9413031816190654F482E829
:1005400091E00E942C03F82E682FCE0107960E949E
:100550006E068DE0F812ECCFBE01695F7F4FCE01D1
:1005600001960E940A06BE016F5F7F4FC8010E947C
:10057000AA00CE0101960E946F05CE0107960E9447
:100580006F05C8012C960FB6F894DEBF0FBECDBF25
:10059000DF91CF911F910F91FF9008951F93CF93FB
:1005A000DF93CDB7DEB76E970FB6F894DEBF0FBE00
:1005B000CDBFCE0101960E948402BE01695F7F4FCC
:1005C000CE0149960E940A06CE0149960E947D00FE
:1005D000182FCE0149960E946F051123B1F0CE016C
:1005E00001960E94EA01BE016F5F7F4FCE014996DE
:1005F0000E94B501BE01675E7F4F82E891E00E94D4
:100600005D05CE0149960E946F05CE0101960E94BC
:100610006A006E960FB6F894DEBF0FBECDBFDF91B5
:10062000CF911F910895FC01818D228D90E0805C17
:100630009F4F821B91098F7399270895FC01918D1B
:10064000828D981731F0828DE80FF11D858D90E035
:1006500008958FEF9FEF0895FC01918D828D98177B
:1006600061F0828DDF01A80FB11D5D968C91928D96
:100670009F5F9F73928F90E008958FEF9FEF089593
:1006800080EB94E0892B49F080E090E0892B29F001
:100690000E94B00481110C9400000895FC01848D27
:1006A000DF01A80FB11DA35ABF4F2C91848D90E09C
:1006B00001968F739927848FA689B7892C93A08977
:1006C000B1898C9180648C93938D848D981306C02E
:1006D0000288F389E02D80818F7D80830895CF93F8
:1006E000DF93EC01888D8823C9F0EA89FB8980813A
:1006F00085FD05C0A889B9898C9186FD0FC00FB60C
:1007000007FCF5CF808185FFF2CFA889B9898C914C
:1007100085FFEDCFCE010E944E03E7CFDF91CF9151
:100720000895CF92DF92FF920F931F93CF93DF93A1
:100730001F92CDB7DEB76C0181E0D60158968C933D
:1007400058975B969C915B975C968C915C979813FD
:1007500007C05096ED91FC915197808185FD2EC088
:10076000F601038D10E00F5F1F4F0F731127F02E5E
:10077000F601848DF81211C00FB607FCF9CFD6012F
:100780005096ED91FC915197808185FFF1CFC60184
:1007900069830E944E036981EBCF838DE80FF11DC1
:1007A000E35AFF4F6083D6015B960C935B9752969A
:1007B000ED91FC915397808180620CC0D6015696D2
:1007C000ED91FC91579760835096ED91FC91519774
:1007D00080818064808381E090E00F90DF91CF91F1
:1007E0001F910F91FF90DF90CF900895BF92CF920D
:1007F000DF92EF92FF92CF93DF93EC016A017B01CE
:10080000B22EE889F98982E08083411581EE58078C
:1008100061057105A1F060E079E08DE390E0A7014A
:1008200096010E942C082150310941095109569521
:10083000479537952795211580E1380798F0E88985
:10084000F989108260E874E88EE190E0A7019601D2
:100850000E942C08215031094109510956954795AC
:1008600037952795EC85FD853083EE85FF852083C0
:10087000188EEC89FD89B082EA89FB8980818061CC
:100880008083EA89FB89808188608083EA89FB898B
:10089000808180688083EA89FB8980818F7D808365
:1008A000DF91CF91FF90EF90DF90CF90BF900895B0
:1008B0001F920F920FB60F9211242F938F939F9335
:1008C000EF93FF93E0919201F09193018081E09189
:1008D0009801F091990182FD12C0908180919B0155
:1008E0008F5F8F7320919C01821751F0E0919B01E3
:1008F000F0E0EE57FE4F958F80939B0101C0808101
:10090000FF91EF919F918F912F910F900FBE0F90BC
:100910001F9018951F920F920FB60F9211242F93CC
:100920003F934F935F936F937F938F939F93AF9377
:10093000BF93EF93FF9382E891E00E944E03FF91F3
:10094000EF91BF91AF919F918F917F916F915F9147
:100950004F913F912F910F900FBE0F901F901895C0
:1009600082E891E00E94130321E0892B09F420E042
:10097000822F0895109285011092840188EE93E0F1
:10098000A0E0B0E08093860190938701A093880156
:10099000B09389018EE591E0909383018093820169
:1009A00085EC90E090938F0180938E0184EC90E031
:1009B000909391018093900180EC90E0909393014B
:1009C0008093920181EC90E0909395018093940143
:1009D00082EC90E0909397018093960186EC90E0F2
:1009E000909399018093980110929B0110929C0121
:1009F00010929D0110929E01089508950E94F107A2
:100A00000E94FD040E946100C0E4D3E00E94CE0277
:100A10002097E1F30E944003F9CFCF92DF92EF924B
:100A2000FF920F931F93CF93DF936C017A01EB0139
:100A3000E60EF71E00E010E0CE15DF0561F06991CB
:100A4000D601ED91FC910190F081E02DC601099550
:100A5000080F191FF1CFC801DF91CF911F910F919E
:100A6000FF90EF90DF90CF9008956115710581F0B0
:100A7000DB010D900020E9F7AD0141505109461B03
:100A8000570BDC01ED91FC910280F381E02D09947C
:100A900080E090E00895DC01ED91FC91DB0114967B
:100AA0004D915C9115976D917C910280F381E02DC1
:100AB00009946AE671E00C9435050F931F93CF9368
:100AC000DF93EC010E944B058C01CE010E94590579
:100AD000800F911FDF91CF911F910F910895FC011D
:100AE000808191810C94EC08CF93DF93EC01888195
:100AF0009981009711F00E94EC08198218821D82DA
:100B00001C821B821A82DF91CF9108950F931F934D
:100B1000CF93DF93EC018B016F5F7F4F88819981C9
:100B20000E947B09009731F0998388831B830A8395
:100B300081E001C080E0DF91CF911F910F91089576
:100B4000CF93DF93EC0188819981892B29F08A81E9
:100B50009B818617970760F4CE010E948605882343
:100B600041F08C819D81892B19F4E881F9811082F3
:100B700081E0DF91CF910895EF92FF920F931F9341
:100B8000CF93DF93EC017B018A01BA010E94A0059B
:100B9000811104C0CE010E94740507C01D830C831F
:100BA000B701888199810E946A0ACE01DF91CF91B5
:100BB0001F910F91FF90EF900895FC011182108218
:100BC00013821282158214826115710559F0FB019E
:100BD00001900020E9F7AF0141505109461B570B26
:100BE0000C94BC050895CF93DF93EC01FB018617AD
:100BF000970761F0608171816115710529F0448169
:100C000055810E94BC0502C00E947405CE01DF918F
:100C1000CF910895FC0111821082138212821582F5
:100C200014820C94F305CF93DF93EC0161157105E9
:100C300061F0FB0101900020E9F7AF01415051093B
:100C4000461B570B0E94BC0502C00E947405CE01D2
:100C5000DF91CF910895EF92FF920F931F93CF935F
:100C6000DF93EC017B010C811D816115710511F48D
:100C700080E016C04115510591F0040F151FB80111
:100C80000E94A0058823A1F3288139818C819D8150
:100C9000B701820F931F0E946A0A1D830C8381E0B3
:100CA000DF91CF911F910F91FF90EF900895FB017D
:100CB00044815581608171810C942B066115710509
:100CC00059F0FB0101900020E9F7AF0141505109B3
:100CD000461B570B0C942B0680E00895CF93DF93AF
:100CE00000D0CDB7DEB769831A8241E050E0BE0183
:100CF0006F5F7F4F0E942B060F900F90DF91CF9177
:100D00000895CF93DF93DC01ED91FC91EB01A88175
:100D1000B981309711F01097C9F4109759F0EB0191
:100D20002C813D81232B31F08C9190E09195819520
:100D3000910914C0309781F0DC0114968D919C913B
:100D40001597892B49F0808190E008C0BD01CF0143
:100D5000DF91CF910C94610A80E090E0DF91CF9118
:100D60000895FC0144815581FB012481358142179E
:100D7000530741F40E94810621E0892B09F020E00D
:100D8000822F089580E00895FC0124813581232B72
:100D900031F421E061157105A1F0FB0108C0FC01EF
:100DA000808191816115710531F421E0FC01808120
:100DB000882339F005C00E94610A21E0892B09F0DF
:100DC00020E0822F0895CF93DF93FC0184819581E9
:100DD0004817590778F4C081D181772767FD70954E
:100DE000CE01840F951F0E94560A009719F08C1BA4
:100DF0009D0B02C08FEF9FEFDF91CF91089540E0F0
:100E000050E00C94E306BF92CF92DF92EF92FF92F4
:100E10000F931F93CF93DF936C017B01EA0189014C
:100E20002417350720F48D2FE901042F182F6CE6C5
:100E300071E0C6010E94DD05D70114968D919C9149
:100E40001597C817D907C8F48017910708F48C01C3
:100E5000D701ED91FC911197E00FF11FB080108246
:100E60006D917C916C0F7D1FC6010E941306D70106
:100E7000ED91FC91E00FF11FB082C601DF91CF919F
:100E80001F910F91FF90EF90DF90CF90BF9008954A
:100E9000AF92BF92CF92DF92EF92FF920F931F9388
:100EA000CF93DF937C01DC01CD90DC901197C114CE
:100EB000D10409F441C01496CD91DC911597209787
:100EC000D9F156018501BFEFAB1ABB0AF801808149
:100ED000992787FD90950E94450A892B99F72197BC
:100EE000CC0DDD1D8881992787FD90950E94450ACC
:100EF000892B91F4AE014F5F5F4F401B510BD7011F
:100F000015965C934E931497C016D10650F4B80111
:100F1000C6010E944D0A05C0C017D10758F321979A
:100F2000E1CFD701ED91FC91119714968D919C9191
:100F30001597E80FF91F1082DF91CF911F910F9144
:100F4000FF90EF90DF90CF90BF90AF9008951F92E9
:100F50000F920FB60F9211242F933F938F939F936D
:100F6000AF93BF938091200290912102A091220221
:100F7000B091230230911F0223E0230F2D3720F47C
:100F80000196A11DB11D05C026E8230F0296A11DE3
:100F9000B11D20931F028093200290932102A09301
:100FA0002202B09323028091240290912502A09105
:100FB0002602B09127020196A11DB11D8093240243
:100FC00090932502A0932602B0932702BF91AF9180
:100FD0009F918F913F912F910F900FBE0F901F9077
:100FE0001895789484B5826084BD84B5816084BD91
:100FF00085B5826085BD85B5816085BDEEE6F0E092
:10100000808181608083E1E8F0E0108280818260ED
:101010008083808181608083E0E8F0E0808181606E
:101020008083E1EBF0E0808184608083E0EBF0E09E
:10103000808181608083EAE7F0E080818460808342
:1010400080818260808380818160808380818068EC
:1010500080831092C1000895A1E21A2EAA1BBB1B27
:10106000FD010DC0AA1FBB1FEE1FFF1FA217B30774
:10107000E407F50720F0A21BB30BE40BF50B661F8A
:10108000771F881F991F1A9469F76095709580954E
:1010900090959B01AC01BD01CF010895EE0FFF1F9C
:1010A0000590F491E02D0994CF93DF938230910560
:1010B00010F482E090E0E0912A02F0912B0220E00F
:1010C00030E0A0E0B0E0309739F14081518148171D
:1010D0005907B8F04817590771F482819381109726
:1010E00029F013969C938E9312972CC090932B0209
:1010F00080932A0227C02115310531F0421753078A
:1011000018F0A901DB0101C0EF019A01BD01DF0167
:101110000280F381E02DD7CF21153105F9F0281B8E
:10112000390B2430310580F48A819B81611571056A
:1011300021F0FB019383828304C090932B02809360
:101140002A02FE01329644C0FE01E20FF31F819392
:10115000919322503109398328833AC02091280283
:1011600030912902232B41F4209102013091030197
:10117000309329022093280220910001309101012F
:101180002115310541F42DB73EB74091040150912E
:101190000501241B350BE0912802F0912902E2178A
:1011A000F307A0F42E1B3F0B2817390778F0AC018A
:1011B0004E5F5F4F2417350748F04E0F5F1F509367
:1011C0002902409328028193919302C0E0E0F0E06D
:1011D000CF01DF91CF910895CF93DF93009709F46A
:1011E00087C0FC01329713821282C0912A02D091EB
:1011F0002B02209781F420813181280F391F8091A3
:101200002802909129028217930779F5F093290219
:10121000E09328026DC0DE0120E030E0AE17BF078A
:1012200050F412964D915C9113979D014115510513
:1012300009F1DA01F3CFB383A28340815181840F96
:10124000951F8A179B0771F48D919C911197840FBC
:10125000951F02969183808312968D919C9113978E
:10126000938382832115310529F4F0932B02E093B7
:101270002A023EC0D9011396FC93EE9312974D912A
:101280005D91A40FB51FEA17FB0779F48081918166
:10129000840F951F0296D90111969C938E9382819B
:1012A000938113969C938E931297E0E0F0E08A81ED
:1012B0009B81009719F0FE01EC01F9CFCE01029657
:1012C00028813981820F931F2091280230912902B1
:1012D0002817390769F4309729F410922B021092DD
:1012E0002A0202C013821282D0932902C0932802DC
:1012F000DF91CF910895A0E0B0E0E1E8F9E00C942F
:10130000780AEC01CB01209719F40E945408B8C068
:10131000FE01E60FF71F9E0122503109E217F30785
:1013200008F4ACC0D9010D911C911197061717074D
:10133000B8F00530110508F49FC0A80144505109C8
:101340004617570708F498C002501109061B170BDF
:10135000019311936D937C93CF010E94EC088CC094
:101360005B01A01AB10A4E01800E911EA0912A02C3
:10137000B0912B02612C712C60E070E0109709F4A1
:1013800049C0A815B905C9F5ED90FC901197670102
:1013900042E0C40ED11CCA14DB0478F147018A185C
:1013A0009B08640142E0C40ED11C1296BC901297B7
:1013B0001396AC91B5E0CB16D10440F0B282A38372
:1013C00091828082D9018D939C9309C00E5F1F4F3B
:1013D0000E0D1F1DF90111830083EB2DFA2F6115EE
:1013E000710531F0DB011396FC93EE93129744C024
:1013F000F0932B02E0932A023FC06D917C911197EC
:101400006616770608F43B01BD0112960D90BC915B
:10141000A02DB4CF6091280270912902681579053A
:10142000E9F468167906D0F4409100015091010169
:101430004115510541F44DB75EB7609104017091BB
:101440000501461B570BE417F507C0F4F09329027A
:10145000E0932802F901918380830EC00E94540812
:101460007C01009759F0A801BE010E944D0ACE01EF
:101470000E94EC08C70104C0CE0102C080E090E0E9
:10148000CDB7DEB7EEE00C94940A91112AC08032F9
:1014900019F089508550D0F70895FB01DC0102C096
:1014A00001900D9241505040D8F70895FC01819170
:1014B000861721F08823D9F7992708953197CF010E
:1014C0000895FB01DC018D91019080190110D9F381
:1014D000990B0895FB01DC0101900D920020E1F7CA
:1014E00008959927882708952F923F924F925F92EF
:1014F0006F927F928F929F92AF92BF92CF92DF9224
:10150000EF92FF920F931F93CF93DF93CDB7DEB788
:10151000CA1BDB0B0FB6F894DEBF0FBECDBF09941C
:101520002A88398848885F846E847D848C849B8473
:10153000AA84B984C884DF80EE80FD800C811B8181
:10154000AA81B981CE0FD11D0FB6F894DEBF0FBEB0
:10155000CDBFED01089510E0CCE6D0E004C0FE015F
:101560000E9450082296CE36D107C9F7F894FFCFD3
:1015700000002C0280006E756C6C003A004F4B002E
:1015800034312032342E323032382C203220313077
:101590002E34343138003100330041595400535453
:1015A000415455530050554D50005754414E4B0037
:1015B00057414900475053003347004C4556454C6E
:1015C0000049534F4E4C494E450000000000910326
:1015D0000D0513032C031E036F030D0A006E616ECD
:0C15E00000696E66006F7666002E000049
:00000001FF
